{
  "_format": "hh-sol-artifact-1",
  "contractName": "Counter",
  "sourceName": "contracts/Counter.sol",
  "abi": [
    {
      "inputs": [],
      "stateMutability": "nonpayable",
      "type": "constructor"
    },
    {
      "inputs": [],
      "name": "decrementCounter",
      "outputs": [],
      "stateMutability": "nonpayable",
      "type": "function"
    },
    {
      "inputs": [],
      "name": "getCounter",
      "outputs": [
        {
          "internalType": "uint256",
          "name": "",
          "type": "uint256"
        }
      ],
      "stateMutability": "view",
      "type": "function"
    },
    {
      "inputs": [],
      "name": "incrementCounter",
      "outputs": [],
      "stateMutability": "nonpayable",
      "type": "function"
    },
    {
      "inputs": [],
      "name": "owner",
      "outputs": [
        {
          "internalType": "address",
          "name": "",
          "type": "address"
        }
      ],
      "stateMutability": "view",
      "type": "function"
    },
    {
      "inputs": [],
      "name": "resetCounter",
      "outputs": [],
      "stateMutability": "nonpayable",
      "type": "function"
    }
  ],
  "bytecode": "0x608060405234801561001057600080fd5b5033600160006101000a81548173ffffffffffffffffffffffffffffffffffffffff021916908373ffffffffffffffffffffffffffffffffffffffff16021790555060008081905550610442806100686000396000f3fe608060405234801561001057600080fd5b50600436106100575760003560e01c80635b34b9661461005c5780638ada066e146100665780638da5cb5b14610084578063dbdf7fce146100a2578063f5c5ad83146100ac575b600080fd5b6100646100b6565b005b61006e6100d1565b60405161007b9190610215565b60405180910390f35b61008c6100da565b6040516100999190610271565b60405180910390f35b6100aa610104565b005b6100b461019d565b005b60016000808282546100c891906102bb565b92505081905550565b60008054905090565b6000600160009054906101000a900473ffffffffffffffffffffffffffffffffffffffff16905090565b600160009054906101000a900473ffffffffffffffffffffffffffffffffffffffff1673ffffffffffffffffffffffffffffffffffffffff163373ffffffffffffffffffffffffffffffffffffffff1614610194576040517f08c379a000000000000000000000000000000000000000000000000000000000815260040161018b9061034c565b60405180910390fd5b60008081905550565b60008054116101e1576040517f08c379a00000000000000000000000000000000000000000000000000000000081526004016101d8906103b8565b60405180910390fd5b60016000808282546101f391906103d8565b92505081905550565b6000819050919050565b61020f816101fc565b82525050565b600060208201905061022a6000830184610206565b92915050565b600073ffffffffffffffffffffffffffffffffffffffff82169050919050565b600061025b82610230565b9050919050565b61026b81610250565b82525050565b60006020820190506102866000830184610262565b92915050565b7f4e487b7100000000000000000000000000000000000000000000000000000000600052601160045260246000fd5b60006102c6826101fc565b91506102d1836101fc565b92508282019050808211156102e9576102e861028c565b5b92915050565b600082825260208201905092915050565b7f4f6e6c79206f776e657200000000000000000000000000000000000000000000600082015250565b6000610336600a836102ef565b915061034182610300565b602082019050919050565b6000602082019050818103600083015261036581610329565b9050919050565b7f436f756e74657220756e646572666c6f77000000000000000000000000000000600082015250565b60006103a26011836102ef565b91506103ad8261036c565b602082019050919050565b600060208201905081810360008301526103d181610395565b9050919050565b60006103e3826101fc565b91506103ee836101fc565b92508282039050818111156104065761040561028c565b5b9291505056fea264697066735822122050bd32223679636779e3474dcf7caf0b91defc2acf6d22c7f55de2110b3c04b264736f6c63430008130033",
  "linkReferences": {},
  "deployedLinkReferences": {}
}